:100000000000012091160000B9160000BB16000088
:10001000BD160000BF160000C11600000000000061
:10002000000000000000000000000000C3160000F7
:10003000C516000000000000C7160000C916000029
:10004000CB160000C1100000ED050000CB1600002B
:10005000CB160000CB1600001D1D0000CB160000C3
:10006000CB160000CB160000CB160000CB1600000C
:10007000CB160000CB160000CB160000CB160000FC
:10008000CB160000CB160000CB160000CB160000EC
:10009000A9130000CB160000CB160000CB16000001
:1000A000CB160000CB160000CB160000CB160000CC
:1000B000CB160000CB16000000000000000000007E
:1000C000CB160000CB160000CB160000CB160000AC
:1000D000CB160000CB160000CB160000000000007D
:1000E0000000000000000000000000000000000010
:1000F0000000000000000000000000000000000000
:1001000000000000000000000000000000000000EF
:1001100000000000000000000000000000000000DF
:1004000010B5054C237833B9044B13B10448AFF34E
:1004100000800123237010BDAC000020000000000C
:100420002C200000084B10B51BB108490848AFF359
:1004300000800848036803B910BD074B002BFBD0B0
:10044000BDE81040184700BF00000000B0000020C9
:100450002C200000A800002000000000154B002BFD
:1004600008BF134B9D46A3F5803A00218B460F46EB
:100470001348144A121A00F065F80F4B002B00D0F5
:1004800098470E4B002B00D0984700200021040015
:100490000D000D48002802D00C48AFF3008000F09A
:1004A0002BF82000290000F083FA00F011F800BFBB
:1004B0000000080000000120000000000000000013
:1004C000AC000020B4040020000000000000000088
:1004D00008B5074B044613B10021AFF30080054B6C
:1004E0001868836A03B19847204600F033F800BFCC
:1004F00000000000FC1F000070B50E4B0E4CE41A0B
:10050000A41000251E46A54204D056F82530984771
:100510000135F8E701F066FD084C094BE41AA41018
:1005200000251E46A54204D056F8253098470135CF
:10053000F8E770BDA0000020A0000020A40000206B
:10054000A000002002440346934202D003F8011B9E
:10055000FAE77047FEE700BF00B585B000230390BF
:10056000194601AA44F20100ADF80430029300F0EC
:1005700003F805B05DF804FBBFF34F8F0549064B48
:10058000CA6802F4E0621343CB60BFF34F8F00BF31
:10059000FDE700BF00ED00E00400FA05002810B4FC
:1005A00018DB00F1604303F561434901C9B283F8E8
:1005B0000013C3B24009800000F1604000F56140C3
:1005C00003F01F0201239340C0F8803103605DF8FF
:1005D000044B7047C3B2044A03F00F04490122449C
:1005E000C9B21176E6E700BFFCEC00E070B59B4CA9
:1005F000237F8EB0002B75D1994AD2F80413890558
:1006000048D4974BD3F80423520704D5D3F80821D4
:10061000002A40F0CA80924BD3F81C21C2B1A28AB2
:10062000A07D8E4992B282424FF00002C3F81C2195
:1006300080F0A980D3F81C210692069A888A8A8ABB
:100640008D6880B20132285C92B28A82C3F81C05A0
:10065000834BD3F84421DAB10022C3F84421D3F804
:100660004411A27E04910499002A40F08980E27D21
:100670007A4B6AB10022587ED968DA7501228DF86A
:1006800030000B918DF828200AA893E806009047C7
:100690000EB070BDD2F824110029B2D0C2F82431B6
:1006A000D2F82411A37E07914FF401710798C2F884
:1006B00008130BB901235360694A02238DF82830CF
:1006C000D2F88034C2F88034E07DE2680D930023D4
:1006D0008DF83000E375237621680B9263680AA8D1
:1006E000984798E75E4BD3F82421002A40F0938086
:1006F000D3F8101161B1C3F81021D3F81011039190
:100700000399D3F83C15E07DC9B2884200F0AA8075
:10071000534BD3F84421B2B10022C3F84421D3F89B
:100720004411E07D019101994C4960B1D3F83C3509
:10073000C8688DF830300123CA750B908DF82830C9
:100740000AA80AC99847464BD3F82021002A9FD00F
:100750000022C3F82021D3F82011A07D0091009938
:100760003E49002894D0D3F84C058B688DF83000B2
:100770008A750B938DF828200AC90AA8984787E73D
:1007800001221A6073E7D3F81C310593059B0028FA
:100790003FF45EAF8B688DF830008A750B938DF84F
:1007A00028200AC90AA8984752E7E17D2B4A002968
:1007B00070D00021C3F80811D3F8081108910899E6
:1007C000D068517ED3F818354354537ED17D013320
:1007D000DBB25376627E214B8A427FF41CAF1A7ED5
:1007E000002A6DD19B7E13B91D4B01225A601C4A11
:1007F000E06863684FF40171C2F80813627E8DF8F7
:100800003020002501220B902168E5758DF8282005
:100810000AA89847FFE60022C3F82421D3F8241140
:10082000029102218DF828100299D3F88014C3F8A0
:1008300080140D91D3F83C15E368E27522768DF8AB
:1008400030100B93216863680AA89847044BD3F8CB
:100850004421002A3FF477AF5EE700BFC8000020C4
:1008600000200040217EF1B1D3F80062E17526F04E
:100870002001E568C3F8001226698DF830000123D5
:100880008DF82830227621680B95E66063680AA807
:1008900098473DE7C3F80811D3F808210992099A4F
:1008A000D3F8183596E7E268E17501238DF830003A
:1008B0008DF828300B9294E80A000AA8984727E799
:1008C000DE685D7E1869DA7501210022D8601A762B
:1008D0005A768DF828100B968DF8305093E8060064
:1008E0000AA8904797E600BF08B5122001F016F954
:1008F000034B0022DA701846BDE8084000F092BDB4
:100900006000002008B50378012B08D0022B05D128
:10091000064800F0F1FD0028FAD008BD08BD00F03F
:1009200035FEBDE8084000F01DBE00BFE800002015
:1009300070B51D4C1D4E22468AB052F8040B009033
:1009400023461068019053F8080F5968103402AB21
:1009500003C30FCC04AD0FC594E80300012285E862
:10096000030000234FF4167104A88DF810208DF8B1
:100970001820ADF81C1005968DF811308DF8243034
:1009800000F0C8FB08B10AB070BD684600F014FE64
:100990000028F8D101A800F02DFE0028F3D102A80C
:1009A000082100F045FEEEE70020000005090000E8
:1009B00010B582B001F002F8002840F081800023D9
:1009C000694612208DF80230ADF8003001F02EF8A3
:1009D000002872D13C4B3D4A186801900324022341
:1009E00001A90D208DF805408DF8043001F0A6F81E
:1009F00000285FD101210D2001F02EF94FF0804336
:100A000000210122C3F8001119461A60D1F8003103
:100A1000002BFBD0FFF78CFF002848D14FF0A042FD
:100A20004FF480212A48C2F808152A4B00682A4C46
:100A300000BF00BF00BF00BF00BF00BF00BF00BFBE
:100A4000A0422FD000BF00BF00BF00BF00BF00BF4B
:100A500000BF00BF00BF00BF00BF00BF00BF00BF9E
:100A600000BF00BF00BF00BF00BF00BF00BF00BF8E
:100A700000BF00BF00BF00BF00BF00BF00BF00BF7E
:100A800000BF00BF00BF00BF00BF00BF00BF00BF6E
:100A900000BF00BF00BF00BF00BF00BF00BF00BF5E
:100AA00000BF00BF013BC3D1C2F80C15FEE7FFF742
:100AB00053FDB3E7FFF750FD9CE7FFF74DFD89E7D6
:100AC000FFF74AFD7BE700BF28200000E90800008F
:100AD0009C00002040420F000024F400074B084A0D
:100AE0005B7C0849C2F81415013B1B0443F080737A
:100AF00043F02003C2F81835704700BF880000207B
:100B00000010004006000300074B084A5B7C0849C0
:100B1000C2F8141540EA002040F08070013B40EA22
:100B20000340C2F8180570478800002000100040FC
:100B300000010100F8B51848184C8189184A194B72
:100B4000194D40F21316C4F800621268C3F840252C
:100B50008239C3F84415002201274FF4E0564FF4C0
:100B60000051DF60C3F84021C3F84421C5F8046593
:100B7000C5F80815C4F80C21007810B90B4B1B6898
:100B80009847064A0A490B4B0B4CC2F804450B48E0
:100B9000086003221A70F8BDCC010020001000404C
:100BA000C801002000A0004000F0014064010020C6
:100BB000680400205C01002010010020710D00007D
:100BC000F8B53C4B3C4F596A3C4E3D4A3D7853F892
:100BD0002110316001231360002D42D09D421ED0B0
:100BE000384C394B4A78C3F82C254978374A384D68
:100BF000D77C01200022022600FA01F1C3F830154B
:100C0000C3F80875C3F80445C5F880612E60C3F8C1
:100C10000421C3F80821C3F810211860F8BDCB786F
:100C20004BBB0B79274C0A7822705B00637011F87C
:100C3000052B284DA01C01F0C9F9234BFF89DFF8D3
:100C4000A8E02548254A40F21B11C3F800121121E3
:100C5000C3F8041302233168CEF8007005601370E6
:100C6000BFE71F4B08781B68164C984731680B7913
:100C700023706570DBE73B7D002BD2D00B79114CE4
:100C80000A7822705B0043F00103637011F8052BB2
:100C9000144FA01C01F09AF90B4B0F480F4A40F279
:100CA0001311C3F800121021C3F804133168076050
:100CB000157096E798010020CC0100203804002030
:100CC0000C030020340100200010004088000020A8
:100CD00000E100E0350B0000680400205C0100200A
:100CE00064010020010F00005801002070B51B4C6A
:100CF000A36A072B29D81A4B1A78012A21D05D78CC
:100D00002DB3226ADD7C54F822302A461D700E462F
:100D100005461449581D01F059F9236A0F4854F843
:100D20002320114955700133072B88BF0023D1F8C8
:100D300048150362A36A917001331671A362012002
:100D400070BD0A4B1D78202D01D9002070BD236A8B
:100D500054F823302A461D70D9E700BF3C04002018
:100D6000CC010020120100200010004010010020E2
:100D7000F8B5534A534B4FF4E051C2F80815D3F875
:100D80000C11002931D0D3F80034002B2DD04E495E
:100D90004E4D4F4EEB894F4F4F4C012048604FF462
:100DA0000051C2F8081532684C48A16A42F00102AD
:100DB00032603A689B1A01330360002956D12B78C0
:100DC000002B66D0464B1B78002B6BD1A36A002BFF
:100DD0005FD02B7C012B5CD0424B4FF48012C3F8C8
:100DE0000021BDE8F840FFF7EBBE3A4A1368591EF0
:100DF0001160CBB9354A344ED2893848304D344928
:100E0000394C0127776001324FF40056C5F8086568
:100E100002600A683348237042F002034FF48012E4
:100E20000B60C0F80021F8BD264C304A304B2E4DE7
:100E3000304F40F21B11C4F8001212681B68107882
:100E400098472D48204B2D4A1D49C4F804250226F9
:100E5000076001224FF400502E701A60C1F804059B
:100E6000D3F844310BB12260F8BDF8BD636A1D4A66
:100E70000133072B88BF002301390220A162C2F889
:100E800080006362174B02221A602B78002B9DD0E2
:100E900098E71549134B00204FF480120870C3F8EF
:100EA0000021F8BD074BD3F82C050021C0B2FFF795
:100EB0001DFF00288AD0336843F00403336085E7C0
:100EC00000F001400010004000A00040CC010020D4
:100ED000C401002058010020980100200C030020CC
:100EE0001001002000E100E05C0100203804002037
:100EF00064010020350B000068040020340100204C
:100F00002DE9F0415F48604B0268996A42F00102A6
:100F1000026000294DD05A6A5C4801320139072A23
:100F20004FF00204996288BF0022C0F88040996A9D
:100F30005A62564B544A02271F60002939D04FF499
:100F40008011C3F80011DFF87481516A504E514B83
:100F500098F8005052F82110316001221A60002DDB
:100F60006DD095422FD1CB781BB198F81430002B5F
:100F700049D10B79484C0A7822705B00637011F8F4
:100F8000052B464F464DA01C01F020F8454BB8F804
:100F90000EE04548454A40F21B11C3F800121121EA
:100FA000C3F8041302233168C7F800E0056013702A
:100FB0000AE03E49354B00204FF480120870C3F818
:100FC0000021BDE8F081344C364B4A78C3F82C251B
:100FD0004978374A2D4DD77C01200022022600FA9D
:100FE00001F1C3F83015C3F80875C3F80445C5F816
:100FF00080612E60C3F80421C3F80821C3F81021D2
:101000001860BDE8F0810B79234C0A7822705B00F0
:1010100043F00103637011F8052B264FA01C00F06C
:10102000D5FF204B2048214A40F21311C3F800128B
:101030001021C3F80413316807601570C4E71E4B14
:1010400008781B68144C984731680B7923706570D9
:1010500011F8052B114DA01C00F0B8FF114BB8F88A
:101060000EE01148114A40F21B11C3F80012112181
:10107000C3F804130A4B3168C5F800E00360177029
:10108000A2E700BFC40100209801002000E100E0B9
:10109000380400200C0300203401002058010020F7
:1010A000350B000000100040680400205C010020A7
:1010B00088000020010F000064010020CC01002006
:1010C000124BD3F8002132B1D3F80423D00744BF28
:1010D0000022C3F800210D4BD3F80C2132B1D3F814
:1010E0000423110744BF0022C3F80C21074BD3F897
:1010F000102152B1D3F80423D20606D50021044AA8
:10110000C3F81011136803B118477047001000406E
:1011100068040020002800F0F8802DE9F8438D4E87
:10112000337881466BBB8C4F8C4D8D4CDFF87482CD
:101130008C4BD9F804201A6049461822404600F02A
:1011400045FF4FF00009884B8848C3F80090494696
:101150002422FFF7F7F9494609228548FFF7F2F9FB
:10116000844A98F8083098F80A10C2F80C15C2F8AA
:101170001035032B34D8DFE813F03000E900DD0030
:1011800030007D4B754D764C734F78484FF000081A
:101190004FF47052C3F808254146242287F8008096
:1011A000C5F82080C5F82480C5F82880C4F82080C0
:1011B000C4F82480C4F82880FFF7C4F94146092206
:1011C0006B48FFF7BFF96D496A4B4FF4801003225B
:1011D000C1F88000C3F80022A8E7694B40221A60DA
:1011E00098F80030002B00F0AD80012B00F08F80CC
:1011F000644B1B6898F809205E49022AC1F834251F
:1012000000F09080012A06D1FF2040F20712C1F8B9
:101210003C05C1F8382598F8130098475A4A5B4BAB
:101220002A6002F12500686002F14A00A86002F11C
:101230006F00E86002F19400286102F1B900686172
:1012400002F1DE0002F20312EA6103F1250262609C
:1012500003F14A02A26003F16F02E26003F194021B
:10126000226103F1B902236062614949A86103F177
:10127000DE0203F20313E36104200023A2612B6268
:101280006B62AB6223626362A3623B4AC1F81005E2
:101290004048C1F8083540F20224C1F80042C2F8C3
:1012A000600504F1804400F50F40C2F8641504F6AF
:1012B0000274043001F5A071C2F86845C2F86C05EB
:1012C000F43CC2F8701500F5A0702A49C2F87445C4
:1012D000C2F87805C2F87C1598F8111098F8122019
:1012E000264C4901520101F0600102F060024FF406
:1012F000801E012584F8011384F81423C4F800E04B
:101300003B7035701846BDE8F8830E2070471D4AC3
:10131000214B136098F809201649022AC1F8342598
:101320007FF470AF4FF6FF701C4AC1F83C05C1F85E
:10133000382570E7124BFA221A6098F80030002B1B
:101340007FF453AF0F4A164B136053E70C4B302218
:101350001A6045E70D0100205C0100209801002083
:101360003C04002060010020C4010020680100202E
:101370008C0100200010004000F0014000E100E07E
:10138000C80100206401002010030020E4010020B7
:1013900000A0004000110040DD0A00002110010003
:1013A000090B0000CC01002070B5194B194A1B78BD
:1013B000126882B001928BB1174B1849184D022266
:1013C000C3F8802000260C680E601A602B682BB1D1
:1013D000E10716D4A2070BD4630701D402B070BD95
:1013E00002A8022300F8083D2B68984702B070BDA0
:1013F00002A8012300F8083D2B6898476307EDD544
:10140000EEE702A800F8086D9847A207E4D5EFE7D9
:101410000D0100200C03002000E100E0C4010020C9
:1014200060010020F8B52E4B1B780BB90820F8BDE1
:1014300088B103785A1E1F2A01D90920F8BD294D09
:101440002A7812B9EA7C9A42F7D3274EB36A072B5F
:1014500003D90420F8BD0E20F8BD6B78214A2BB9C2
:10146000C3781BB1137D0BB90620F8BD1F4A336A40
:101470001D4F02210446C2F8801056F82300214671
:10148000252200F0A3FD60781949326A0B5C013314
:1014900003F003030B5456F822306078114C095CBA
:1014A00019710132072A98BF3A62104A88BF002397
:1014B0004FF0020188BF3B62B36A11606878013364
:1014C000B36230B9237C1BB90A4A14781CB11846A0
:1014D000F8BD0020F8BDFFF773FB2046F8BD00BF44
:1014E0000D010020CC0100209801002000E100E067
:1014F0008C0100205C010020174B1B780BB90820E1
:10150000704728B110B5154CA36A1BB9052010BD52
:101510000E207047124A636A0221C2F8801054F804
:1015200023100A7802704B78437091F9023083706F
:101530000B7903710531053000F048FD636A084AF4
:101540000133072B88BF00236362A36A0221013B9A
:10155000A3621160002010BD0D0100203C0400209A
:1015600000E100E010B5074B1C780CB1112010BD54
:10157000054B9B6A13B94FF4807010BDFFF720FB39
:10158000204610BD5C01002098010020074B1B780D
:101590000BB908207047064B064A00200221C2F80A
:1015A0008010986211601862586270470D01002027
:1015B0009801002000E100E038B50B4B1C780CB11D
:1015C000112038BD68B1094D01460422284600F0BB
:1015D000FDFC2B6893FAA3F3054AC2F81C3520469C
:1015E00038BD0E2038BD00BF5C01002088000020FF
:1015F0000010004038B50B4B1C780CB1112038BDE1
:1016000068B1094D01460422281D00F0DFFC6B681B
:1016100093FAA3F3054AC2F82035204638BD0E20C0
:1016200038BD00BF5C010020880000200010004091
:1016300070B5144B1C780CB1112070BD18B108297D
:1016400003D9072070BD0E2070BD0F4E0D462A46EF
:10165000014606F1080000F0B9FCC5F10802FF23BD
:101660001341B3743574B36893FAA3F20749F3686E
:1016700012BAC1F8242593FAA3F31BBAC1F828358E
:10168000204670BD5C010020880000200010004052
:101690000649074A074B9B1A03DD043BC858D05044
:1016A000FBDC00F013F8FEF7D9FE00003820000044
:1016B00000000020AC000020FEE7FEE7FEE7FEE7AA
:1016C000FEE7FEE7FEE7FEE7FEE7FEE7F0B4A64B27
:1016D0001B78062B1BD0A54AD2F8883043F4700340
:1016E000C2F88830BFF34F8FBFF36F8F4FF01023D6
:1016F000D3F80022002AC0F20581D3F80432002B6F
:10170000C0F200819A4B9B4A1A60F0BC70479A4B1A
:101710001B681E07DFD1994B1B6803F0F003302BC9
:1017200002D1974B974A1A60944B1B6803F0F00262
:10173000302A00F0D68003F0E003402B00F0D18087
:101740008E4B1B6803F0F003302B00F0BB808B4BFB
:101750001B6803F0F002302A00F0A08003F0E003E1
:10176000402B00F09B80854B1B6803F0F003302B6F
:1017700000F08680814B1B6803F0F003302B68D0AB
:101780007E4B1B6803F0F003502B10D07B4B1B6883
:1017900003F0F002302A03D003F0E003402B9AD18B
:1017A000794B7A4A1B6803F04F03136093E74FF0BD
:1017B0008052774BD2F80414C3F82015D2F80814DD
:1017C000C3F82415D2F80C14C3F82815D2F8101455
:1017D000C3F82C15D2F81414C3F83015D2F8181425
:1017E000C3F83415D2F81C14C3F84015D2F82014ED
:1017F000C3F84415D2F82414C3F84815D2F82814B5
:10180000C3F84C15D2F82C14C3F85015D2F8301484
:10181000C3F85415D2F83414C3F86015D2F838144C
:10182000C3F86415D2F83C14C3F86815D2F8401414
:10183000C3F86C15D2F844244B49C3F870250A78D4
:10184000062A7FF448AF4C4B1B681B077FF443AF5D
:101850009CE7454B4F491B784F4D5048504A052750
:101860000F60012600243F21062B2E6004601160CA
:101870007FF431AF404B1B681A077FF42CAF7FE732
:10188000394B484A1B780321062B11607FF423AFA4
:10189000394B1B6819077FF41EAF6BE7324B1B787F
:1018A0004FF080420021062BC2F80C11C2F8101133
:1018B000C2F838157FF40FAF2F4B1B6818077FF461
:1018C0000AAF50E73849284ACB68127823F0807372
:1018D000062ACB60B4D1284B1B681C077FF4FBAEF3
:1018E00035E7324A204B12681B783149C2F3423245
:1018F000062B0A607FF4EFAE1F4B1B681D077FF4B9
:10190000EAAE1DE72B4B0122C3F80425D3F80024CF
:10191000002AFBD04FF0102315222649C3F80022DD
:10192000D1F80034002BFBD04FF0102315222149B1
:10193000C3F80422D1F800241E4B002AFAD000225A
:10194000C3F80425D3F80024002AFBD0BFF34F8F3F
:101950000649194BCA6802F4E0621343CB60BFF337
:101960004F8F00BFFDE700BFE00F00F000ED00E08B
:101970009C0000200090D003E40F00F0E80F00F07E
:1019800074C007400DF0ADBA58020010E40E0040DC
:1019900000C00040105600408856004018560040D5
:1019A00014560040A0050040F0ED00E04402001095
:1019B0003C05004000E001400400FA0530B5184C39
:1019C00094F8455083B015B1082003B030BD4FF0F6
:1019D000FF33072106206362A362E362236363632C
:1019E000A363E363236423606360A360E360236114
:1019F0006361A361E361236284F84430FEF7CEFDA6
:101A0000084B094A1D601B68019301984FF0004381
:101A10000121284684F84510C2F8043303B030BDD4
:101A20006C0400207C6100400060004070B43A4BC0
:101A30001A1892F92440013402D0082070BC704773
:101A40008C78DCB11A6801325AD05A68013259D008
:101A50009A68013258D0DA68013257D01A690132D7
:101A600056D05A69013255D09A6901321BD0DA69D1
:101A7000013208BF072517D00420DFE7FE2382F8D4
:101A800024304B78012B35D001234FF0A042834006
:101A9000C2F80C3500F5E0704FF0A043032243F884
:101AA00020200020CAE70625AA0002F1804202F5A4
:101AB000C0421E18002443F8254086F82450D2F86E
:101AC00010450D784B7824F4981424F4F8542D0420
:101AD0001B05C2F8104505F4403503F480130402D9
:101AE0002B4304F4F854D2F8105523432B43C2F887
:101AF0001035C6E74FF0A0428340C2F80835C9E769
:101B00000025D1E70125CFE70225CDE70325CBE767
:101B10000425C9E70525C7E76C0400204FF0A04263
:101B20000123D2F8041503FA00F020EA010308406B
:101B3000C2F80835C2F80C05704700BFF0B4454B39
:101B40001C1894F92450002D02DB0820F0BC7047CB
:101B5000CD78D5B11E68013621D05C68013477D0CC
:101B60009C68013472D0DC6801346DD01C6901348A
:101B700068D05C69013463D09C6901345ED0DC6953
:101B800001344ED00420F0BC70471D6A0135F9D1F4
:101B9000082584F824502E461A622C464AE0002577
:101BA00084F824501A602C468A78AAB1820002F187
:101BB000A042D2F8005725F00205C2F80057CA78B3
:101BC0009AB9083C2344087893F8441041EA8011FC
:101BD00083F844101046B9E74D784FF0A04600F561
:101BE000E072AD0046F82250E9E7A30003F180431C
:101BF00003F5C0430A78D3F8101521F4473121F4D6
:101C00004071C3F810151204000202F44031D3F8F9
:101C1000104500F4F8520A432243C3F8102500206F
:101C200094E707261F1874B243F8262087F824404B
:101C3000002DB9D11E4486F83C00B5E70626F1E731
:101C40000526EFE70426EDE70326EBE70226E9E7A2
:101C50000126E7E76C040020F0B42E4D2E1882B068
:101C600096F92430072B1CDD2B4493F83C309B095C
:101C7000032B41D0012B14BF4FF440334FF40033FA
:101C8000800000F1A040D0F8002722F44032C0F8D4
:101C90000027D0F800271343C0F8003702B0F0BC8B
:101CA0007047DAB2072AF9D8980000F1804000F5B1
:101CB000C04003F140029200D0F8104592B202F108
:101CC0008042002744F0010402F5C042C0F81045EC
:101CD0000197019817600029E0D096F9242055F863
:101CE0002220002ADAD001220B4902FA03F3C1F8BC
:101CF000043302B0F0BC70474FF0A043D3F8103566
:101D0000C34013F0010F0CBF4FF400334FF44033C6
:101D1000B6E700BF6C040020006000402DE9F041F0
:101D200086B000269E4B01961A68012A00F00081B9
:101D30009C4B1A68012A00F0ED809B4B1A68012A1F
:101D400000F0DA80994B1A68012A00F0C780984B9E
:101D50001A68012A00F0B480964B1A68012A00F034
:101D6000A180954B1A68012A00F08E80934B1A6867
:101D7000012A7BD0924B1A68012A6AD016F0FF0F15
:101D80001AD0904F01250024A30003F180432E4276
:101D900003F5C0434FEA45050BD0D3F8100557F8BB
:101DA0002420D3F81015C0F30420C1F3014102B17F
:101DB00090470134082CE7D1002E02DB06B0BDE8C5
:101DC000F081804C00224FF0FF33264602920393AD
:101DD000012594F944305A1CF0D0DBB223F0C00046
:101DE00006A9C20801EB020C03F007071CF80C1C43
:101DF00005FA07F73942E1D006EB000E99099EF982
:101E0000243056F82380B8F1000F00F09F8003299A
:101E100000F09F80830003F1A0431CF814ECD3F87A
:101E200000271EEA070FC2F301420BD1032AC5D1D6
:101E3000032900F09680B8F1000FBFD0C04706B06C
:101E4000BDE8F081022AB9D10329F4D14FF440371B
:101E500089E000221A601B6805934FF0A043059AA1
:101E6000D3F81035019346F0004687E7564AD2F87A
:101E7000042311067FF57EAF00221A601B680493CD
:101E8000049B46F0800675E74F4AD2F804235006BB
:101E90007FF56CAF00221A601B680493049B46F028
:101EA000400663E7484AD2F8042394067FF559AF09
:101EB00000221A601B680493049B46F0200650E73A
:101EC000414AD2F80423D5067FF546AF00221A60B6
:101ED0001B680493049B46F010063DE73A4AD2F88B
:101EE000042317077FF533AF00221A601B680493A1
:101EF000049B46F008062AE7334AD2F80423520727
:101F00007FF520AF00221A601B680493049B46F003
:101F1000040617E72C4AD2F8042391077FF50DAF8A
:101F200000221A601B680493049B46F0020604E733
:101F30002549D1F8041311F0010105D01E601B687A
:101F40000493049B1646F3E60E46F1E603297FF45C
:101F500035AF02AB0DF1080E9B5C3B430EF802302F
:101F600058E74FF40037D3F8001721F44031C3F895
:101F70000017D3F800273A43C3F80027B8F1000F41
:101F80000BD14FF0A043019AD3F8103593423FF4A0
:101F900015AF029A019303921BE70321C047F0E7B4
:101FA0000061004004610040086100400C61004095
:101FB0001061004014610040186100401C61004045
:101FC0007C6100406C0400200060004010B5431E9E
:101FD0000A44914204D011F8014B03F8014FF8E78D
:101FE00010BD0000F8B500BFF8BC08BC9E467047A5
:101FF000F8B500BFF8BC08BC9E4670470000002042
:10200000E7E7E7E7C2C2C2C2E7C2C3C4C5C6C7C8E2
:10201000010000000000000001020000FA000300BF
:102020000001022000000000030000010000000089
:082030002CE4FF7F0100000019
:102038000000000000000000000000000000000098
:102048000000000000000000000000000000000088
:102058000000000000000000000000000000000078
:102068000000000000000000000000000000000068
:102078000000000000000000000000000000000058
:102088000000000000000000000000000000000048
:10209800080000000001000000110000000000001E
:1020A8000000000000000000000000000000000028
:1020B8000000000000000000E7E7E7E7C2C2C2C274
:1020C800E7C2C3C4C5C6C7C80805FF020090D0034D
:0C20D800250400000104000000000000CE
:040000030000169152
:00000001FF
