:10000000000001208D180000B5180000B71800008E
:10001000B9180000BB180000BD1800000000000067
:10002000000000000000000000000000BF180000F9
:10003000C118000000000000C3180000C51800002F
:10004000C718000039130000C7180000C7180000C7
:10005000C7180000C7180000C7180000C718000024
:10006000C7180000C7180000C7180000C718000014
:10007000C7180000C7180000C7180000C718000004
:10008000C7180000C7180000C7180000C7180000F4
:1000900021160000C7180000C7180000C71800008C
:1000A000C7180000C7180000C7180000C7180000D4
:1000B000C7180000C7180000000000000000000082
:1000C000C7180000C7180000C7180000C7180000B4
:1000D000C7180000C7180000C71800000000000083
:1000E0000000000000000000000000000000000010
:1000F0000000000000000000000000000000000000
:1001000000000000000000000000000000000000EF
:1001100000000000000000000000000000000000DF
:1004000010B5054C237833B9044B13B10448AFF34E
:1004100000800123237010BDF401002000000000C3
:100420001C270000084B10B51BB108490848AFF362
:1004300000800848036803B910BD074B002BFBD0B0
:10044000BDE81040184700BF00000000F801002080
:100450001C270000F001002000000000154B002BBD
:1004600008BF134B9D46A3F5803A00218B460F46EB
:100470001348144A121A00F065F80F4B002B00D0F5
:1004800098470E4B002B00D0984700200021040015
:100490000D000D48002802D00C48AFF3008000F09A
:1004A0002BF82000290000F0FBFB00F011F800BF42
:1004B0000000080000000120000000000000000013
:1004C000F4010020480800200000000000000000A7
:1004D00008B5074B044613B10021AFF30080054B6C
:1004E0001868836A03B19847204600F033F800BFCC
:1004F000000000007825000070B50E4B0E4CE41A89
:10050000A41000251E46A54204D056F82530984771
:100510000135F8E702F024F8084C094BE41AA4105E
:1005200000251E46A54204D056F8253098470135CF
:10053000F8E770BDE8010020E8010020EC01002090
:10054000E801002002440346934202D003F8011B55
:10055000FAE77047FEE700BFF0B51746C7B01C4684
:10056000B9B106AE0B68604A30464FF4807101F0B5
:1005700057FB00280ADB4C9B0546062B00F2B28095
:10058000DFE803F012323B4653637500002047B0AA
:10059000F0BD4C9B062B00F2A380DFE803F0048B38
:1005A00090957C8186000025384601F073FB431945
:1005B000FF2B044640F28D80002CE7DB2C44B4F581
:1005C000807FE3D80A27002506AE22467119002055
:1005D00000F0F8FB0544241A08B9013F01D0002CB3
:1005E000F3D1012047B0F0BDC0F5807123683A46D1
:1005F000701901F015FB0446DEE7C0F580716268F2
:100600002368009270193A4601F00AFB0446D3E7CA
:10061000C0F58071A2682368646800940192701923
:100620003A4601F0FDFA0446C6E7C0F58071E2687B
:100630002368D4F808E0646802928DE810403A46D6
:10064000701901F0EDFA0446B6E7C0F58071206933
:10065000E26823680390D4F808E0646802928DE8A9
:1006600010403A46701901F0DBFA0446A4E7C0F5E1
:1006700080716269206923680492E2680390D4F86B
:1006800008E0646802928DE810403A46701901F063
:10069000C7FA044690E74FF48071002506AEC6E71E
:1006A0004FF48071002506AED1E74FF4807100252C
:1006B00006AEDEE74FF48071002506AE96E74FF4F4
:1006C0008071002506AE9AE74FF48071002506AED2
:1006D000A0E706AE39467019224601F095FA6BE79D
:1006E00000246FE7002469E77C2500002DE9F04F26
:1006F0001446C7B01D46002900F02381002B00F0EE
:1007000004810A2302934FF0000B06AF519B539ACA
:10071000134420261C4602990BEB0103049331334A
:10072000FB18039307EB0B031A460193002965D0CE
:10073000534203F003038B4228BF0B46062900F205
:10074000DB800B46019907F80B600A46012B02F18A
:10075000010200F0CF80022B4E7001F1020200F086
:10076000C980032B8E7001F1030200F0C3800A469A
:10077000042BCE7002F1040200F0BC80062B0E7137
:1007800001F1050240F0BE804E718A1D9846029923
:1007900099422ED00298C3EB0009A9F1040100F19F
:1007A000FF3E8908C3EB0E0E0131BEF1020F4FEA86
:1007B000810C12D95B444FF0203E012907EB030B5B
:1007C00047F803E005D00229CBF804E001D0CBF8CC
:1007D00008E0E1456244E0440BD00299167008F14C
:1007E00001038B4205D208F102008842567000D204
:1007F0009670019B029A134401931A46039B059736
:1008000002F1330A274602F1030B544603F10109B2
:10081000DDF844A10DE00BF8036C0BF8026C0BF84B
:10082000016C0BF1030BA34509F8016C09F10109F7
:100830002FD0AF42EFD9AA4556D9509B13F8058067
:100840000BF8016C4FEA28105FFA80FE092808F0C7
:100850000F00D4BF0EF1300E0EF1370E092894BFF1
:10086000303037300BF803EC0BF8020C01F0B0F924
:1008700040440BF1030B407810F0970F08BF4FF086
:100880002E08A34509F8018C05F1010509F10109BC
:10089000CFD1049B039903F1430A019B3C460D22EF
:1008A0004FF00A0B059F0A7481F811B0A14683F836
:1008B00030604FF000085446224607EB0801002044
:1008C00000F080FA8044241A10B9BBF1010B01D06A
:1008D000002CF1D14D454C464FF0000BFFF41BAFFF
:1008E000284647B0BDE8F08FCAEB0500529B13F8CD
:1008F0000080A5E798464AE7002B7FF423AF019AD2
:10090000984647E74FF0050841E706AF0B68114AE4
:1009100038464FF4807101F083F90028E0DB0A23A8
:1009200006460293204601F0B5F9C22828BFC2202E
:10093000834602462146B81901F066F90025B34402
:10094000E4E61BB902952E4606AFEBE702918B4613
:1009500006AFDBE67C25000070B5074D074E2B780F
:1009600013B13378834205D0044600F0E9FA01233D
:1009700034702B70002070BD110200201002002086
:10098000004870475905000000487047ED06000018
:1009900038B50120FFF7E0FF044638B9FFF7F0FF54
:1009A0000546FFF7F1FF024B5D619861204638BDB7
:1009B0001402002010B5054C82B000230A46646979
:1009C00000931946A04702B010BD00BF14020020DA
:1009D00000B585B000230390194601AA44F2010036
:1009E000ADF80430029300F003F805B05DF804FBA5
:1009F00008B508490120FFF7DDFFBFF34F8F064917
:100A0000064BCA6802F4E0621343CB60BFF34F8F1A
:100A100000BFFDE78425000000ED00E00400FA05BA
:100A2000F8B50378012B00F0F080022B40F0EC8049
:100A3000784800F033FE0028FAD04FF0A0434FF47E
:100A400080254FF400644FF400504FF48051724AF7
:100A5000724EC3F80855C3F80C45C3F80805C3F82F
:100A60000C1536686E4F964600BF00BF00BF00BF32
:100A700000BF00BF00BF00BFBE422FD000BF00BFFD
:100A800000BF00BF00BF00BF00BF00BF00BF00BF6E
:100A900000BF00BF00BF00BF00BF00BF00BF00BF5E
:100AA00000BF00BF00BF00BF00BF00BF00BF00BF4E
:100AB00000BF00BF00BF00BF00BF00BF00BF00BF3E
:100AC00000BF00BF00BF00BF00BF00BF00BF00BF2E
:100AD00000BF00BF00BF00BF00BF00BFBEF1010EDE
:100AE000C2D1C3F80C559646C3F80845C3F80C05A7
:100AF000C3F80C1500BF00BF00BF00BF00BF00BFA0
:100B000000BF00BFBE422FD000BF00BF00BF00BF6C
:100B100000BF00BF00BF00BF00BF00BF00BF00BFDD
:100B200000BF00BF00BF00BF00BF00BF00BF00BFCD
:100B300000BF00BF00BF00BF00BF00BF00BF00BFBD
:100B400000BF00BF00BF00BF00BF00BF00BF00BFAD
:100B500000BF00BF00BF00BF00BF00BF00BF00BF9D
:100B600000BF00BF00BF00BFBEF1010EC2D1C3F87D
:100B70000855C3F80C45C3F80C05C3F8081500BFA9
:100B800000BF00BF00BF00BF00BF00BF00BFBE422C
:100B90002FD000BF00BF00BF00BF00BF00BF00BF1D
:100BA00000BF00BF00BF00BF00BF00BF00BF00BF4D
:100BB00000BF00BF00BF00BF00BF00BF00BF00BF3D
:100BC00000BF00BF00BF00BF00BF00BF00BF00BF2D
:100BD00000BF00BF00BF00BF00BF00BF00BF00BF1D
:100BE00000BF00BF00BF00BF00BF00BF00BF00BF0D
:100BF00000BF013AC3D1C3F80C55C3F80845C3F888
:100C00000805C3F80815F8BDF8BDBDE8F84000F0C8
:100C1000BBBD00BF3002002020A1070078000020EB
:100C20000024F40070B51C4C1C4E22468AB052F8C9
:100C3000040B009023461068019053F8080F596880
:100C4000103402AB03C30FCC04AD0FC594E803000E
:100C5000012385E803000024032204A88DF8244022
:100C60008DF823208DF818308DF81130059600F09E
:100C70008DFB08B10AB070BD684600F09BFD0028EE
:100C8000F8D101A800F0B4FD0028F3D102A8082192
:100C900000F0CCFDEEE700BF9C250000210A00001B
:100CA00010B50020FFF774FE00287ED108234FF016
:100CB000A040032103F5E0720133202B40F82210FD
:100CC0004FF0A042F6D14FF480244FF400604FF46F
:100CD00080514FF40053C2F80C45C2F80805C2F821
:100CE0000815C2F80835FFF79DFF00285AD14FF0CC
:100CF000804300210122C3F8001119461A60D1F87F
:100D00000031002BFBD04FF0A0424FF480512A4815
:100D1000C2F80C15294B0068294C00BF00BF00BF6A
:100D200000BF00BF00BF00BF00BFA0422FD000BF68
:100D300000BF00BF00BF00BF00BF00BF00BF00BFBB
:100D400000BF00BF00BF00BF00BF00BF00BF00BFAB
:100D500000BF00BF00BF00BF00BF00BF00BF00BF9B
:100D600000BF00BF00BF00BF00BF00BF00BF00BF8B
:100D700000BF00BF00BF00BF00BF00BF00BF00BF7B
:100D800000BF00BF00BF00BF00BF00BF00BF013BEE
:100D9000C3D1C2F8081500F0B7FC48B920BF40BF66
:100DA00020BFFBE7FFF714FEA1E7FFF711FE7DE789
:100DB000FFF70EFEF2E700BF7800002040420F0070
:100DC0000024F4002DE9F84F4300DFF870A11E184D
:100DD0000AEBC6068846F16A0129174641D031D38D
:100DE000022939D1013000EB4000756A4FEAC00991
:100DF0004FF0000B1CE0326A641BBC420AEB090195
:100E00002346A2EB050428BF3B469C42486828BF06
:100E10001C4628444146224600F0F6FE336A25442B
:100E20009D4208BF00253F1BA344A044756215D016
:100E3000B36AAB4203F1FF34DDD8326A1344013B9D
:100E40005C1BDAE7B16A726A91429CBF346A091985
:100E500001398A1A974236D94FF0000B5846BDE83F
:100E6000F88FB16A756AA94227D90139326AC5EB90
:100E7000010B03440AEBC30ABB45DAF824502F4B9D
:100E800028BFBB46561B0130B34500EB40003BD3A7
:100E900003EBC0043246606841462844C6EB0B05AC
:100EA00000F0B2FE606808EB06012A4600F0ACFED6
:100EB000CAF824505846BDE8F88F326A8C18013CB5
:100EC000C5EB040BD5E703440AEBC30A0130DAF89B
:100ED0002460DAF82040194BA41BA74200EB400025
:100EE0001ED303EBC00522466868414630443E1BD2
:100EF00000F08AFE686808EB0401324600F084FEC8
:100F0000BB46CAF82460A9E703EBC0034146586812
:100F10005A4628445D4400F077FECAF824509DE705
:100F200003EBC003414658683A4630443E4400F063
:100F30006BFEBB46CAF8246090E700BFCC070020D8
:100F4000F8B5114C2378F3B9A362104A636202200A
:100F5000A365E362E36563650D4F0E4D0E492061A5
:100F600010234FF4007623656061A261A264E01D46
:100F7000E7612662E56400F085FE0849204600F03E
:100F800081FE2023A371F8BDCC070020C4250000FA
:100F90006802002058020020D0250000D42500005F
:100FA000074B084A5B7C0849C2F81415013B1B0437
:100FB00043F0807343F02003C2F81835704700BF38
:100FC000640000200010004006000300074B084AA0
:100FD0005B7C0849C2F8141540EA002040F080709C
:100FE000013B40EA0340C2F8180570476400002046
:100FF000001000400001010010B50A4C0A4A0B4BDA
:1010000040F21711C4F80012D07C1B689847084AB8
:101010000849094BC4F804250848086004221A70DE
:1010200010BD00BF0010004020050020B8040020C3
:101030006C040020BC070020B2040020C510000092
:1010400070B51B4CA36A072B29D81A4B1A78012AB2
:1010500021D05D782DB3226ADD7C54F822302A46F7
:101060001D700E4605461449581D00F0CDFD236A3B
:101070000F4854F82320114955700133072B88BFBE
:101080000023D1F848150362A36A917001331671E9
:10109000A362012070BD0A4B1D78202D01D90020CC
:1010A00070BD236A54F823302A461D70D9E700BF6B
:1010B00090070020200500206E0400200010004052
:1010C0006C0400202DE9F8438D4CD4F80054002D19
:1010D0004BD08C4B9B6A072B00F2BF80D4F80824BE
:1010E000894DD4F80C1435F82230DFF82C8299425F
:1010F0005CD098F80100012620FA06F74FF0000EA8
:1011000094002B1981499F707D4F0B7DD7F80CC43B
:1011100025F822C00BB1C30757D4794B40F21B12FC
:10112000C3F800220F78002F00F0AF80012F6DD19F
:10113000774A916A49B1506AD3F8087452F820305E
:1011400093F801C0BC4500F0AD802B19714ADFF85F
:10115000E49112680027DF703846904789F80070E4
:1011600098F8013089F8013052E040F21311674AD3
:10117000684BC4F800121B68D07C9847664BC4F8D3
:1011800004350123C4F8105121462361D1F81031F0
:101190005B4A002BFAD0002040F217110123C2F85D
:1011A0001001C2F800125360BDE8F88394002B19B7
:1011B00098F801009B784708BB4215BF012600261E
:1011C0004FF0000E4FF0010E9BE740F21312514B0F
:1011D000C7F80022C87C1B68984700220123C7F883
:1011E00004853946C7F810213B61D1F81031444AD3
:1011F000002BFAD0002040F217110123C2F8100191
:10120000C2F80012536096B9BDE8F883DFF8249164
:1012100042493B4B424A05200870D3F80804414933
:10122000C3F82C05C3F804951160002EECD0344BA4
:101230002544D3F80804A978C0B2FFF701FF0028BD
:10124000E2D0394A394913684FF4801043F004035F
:101250001360C1F80001BDE8F88340F213112B4A76
:101260002C4BC4F800121B68D07C98472A4BC4F85A
:10127000043500220123C4F8102121462361D1F84E
:1012800010311F4A002BFAD085E7224BDFF8A490DB
:101290001B683846984798F8003089F8003089F87C
:1012A0000170B5E72F19FF78A7B1BEF1000F11D17A
:1012B0000130072888BF70461B4F98BF506252F814
:1012C0002030386888BFC2F824E0013940F00100BE
:1012D000916238602A190F49154FDFF858903B602A
:1012E0000120D07018780A689047396848460B7812
:1012F00000F8023B11F8052B00F086FC30E700BF38
:101300000010004090070020BC04002020050020B1
:10131000EC040020B80400206C040020B20400207B
:10132000BC070020F90F00001805002000E100E0D4
:101330008C07002090040020124BD3F8002132B11A
:10134000D3F80423D00744BF0022C3F800210D4B7B
:10135000D3F80C2132B1D3F80423110744BF002283
:10136000C3F80C21074BD3F8102152B1D3F8042352
:10137000D20606D50021044AC3F81011136803B140
:101380001847704700100040BC070020002800F0FC
:10139000F8802DE9F8438D4E337881466BBB8C4F36
:1013A0008C4D8D4CDFF874828C4BD9F804201A6078
:1013B00049461822404600F027FC4FF00009884BB0
:1013C0008848C3F8009049462422FFF7BBF84946F5
:1013D00009228548FFF7B6F8844A98F8083098F84B
:1013E0000A10C2F80C15C2F81035032B34D8DFE808
:1013F00013F03000E900DD0030007D4B754D764C78
:10140000734F78484FF000084FF47052C3F8082526
:101410004146242287F80080C5F82080C5F8248042
:10142000C5F82880C4F82080C4F82480C4F8288037
:10143000FFF788F8414609226B48FFF783F86D49AA
:101440006A4B4FF480100322C1F88000C3F80022D9
:10145000A8E7694B40221A6098F80030002B00F092
:10146000AD80012B00F08F80644B1B6898F8092039
:101470005E49022AC1F8342500F09080012A06D185
:10148000FF2040F20712C1F83C05C1F8382598F852
:10149000130098475A4A5B4B2A6002F125006860A6
:1014A00002F14A00A86002F16F00E86002F19400C6
:1014B000286102F1B900686102F1DE0002F2031254
:1014C000EA6103F12502626003F14A02A26003F1BE
:1014D0006F02E26003F19402226103F1B90223601A
:1014E00062614949A86103F1DE0203F20313E3617B
:1014F00004200023A2612B626B62AB6223626362F1
:10150000A3623B4AC1F810054048C1F8083540F2D3
:101510000224C1F80042C2F8600504F1804400F5DD
:101520000F40C2F8641504F60274043001F5A0718E
:10153000C2F86845C2F86C05F43CC2F8701500F5B5
:10154000A0702A49C2F87445C2F87805C2F87C1523
:1015500098F8111098F81220264C4901520101F018
:10156000600102F060024FF4801E012584F801132F
:1015700084F81423C4F800E03B7035701846BDE8C9
:10158000F8830E2070471D4A214B136098F80920FC
:101590001649022AC1F834257FF470AF4FF6FF7068
:1015A0001C4AC1F83C05C1F8382570E7124BFA22F5
:1015B0001A6098F80030002B7FF453AF0F4A164B97
:1015C000136053E70C4B30221A6045E76804002093
:1015D000B2040020EC04002090070020B404002096
:1015E00018050020BC040020E0040020001000408A
:1015F00000F0014000E100E01C050020B8040020DC
:10160000640600203805002000A0004000110040C2
:10161000A10F000021100100CD0F000020050020C7
:1016200070B5194B194A1B78126882B001928BB1C0
:10163000174B1849184D0222C3F8802000260C6869
:101640000E601A602B682BB1E10716D4A2070BD4E9
:10165000630701D402B070BD02A8022300F8083D60
:101660002B68984702B070BD02A8012300F8083D1E
:101670002B6898476307EDD5EEE702A800F8086DE0
:101680009847A207E4D5EFE7680400206006002031
:1016900000E100E018050020B4040020174B1B787F
:1016A0000BB90820704728B110B5154CA36A1BB9B7
:1016B000052010BD0E207047124A636A0221C2F84D
:1016C000801054F823100A7802704B78437091F917
:1016D000023083700B7903710531053000F094FA04
:1016E000636A084A0133072B88BF00236362A36A39
:1016F0000221013BA3621160002010BD680400209C
:101700009007002000E100E018490A780AB1112092
:101710007047F0B5164B1748174D184E877CC07CA4
:10172000174C4FF0FF3EC3F808E3C3F810212E60BA
:1017300040F21715C3F8005210260425C3F80463BD
:101740000D70104EC3F8307502210125C3F808054D
:10175000C3F80465C4F880112160C3F80421C3F8FC
:101760000821C3F810215D601046F0BDB2040020CE
:101770000010004064000020BC070020C5100000DD
:1017800000E100E06C040020074B1B780BB9082037
:101790007047064B064A00200221C2F8801098626A
:1017A000116018625862704768040020EC04002041
:1017B00000E100E038B50B4B1C780CB1112038BDAE
:1017C00068B1094D01460422284600F01DFA2B6835
:1017D00093FAA3F3054AC2F81C35204638BD0E2003
:1017E00038BD00BFB204002064000020001000409B
:1017F00038B50B4B1C780CB1112038BD68B1094DC0
:1018000001460422281D00F0FFF96B6893FAA3F348
:10181000054AC2F82035204638BD0E2038BD00BF2D
:10182000B2040020640000200010004070B5144B8A
:101830001C780CB1112070BD18B1082903D90720FC
:1018400070BD0E2070BD0F4E0D462A46014606F1B2
:10185000080000F0D9F9C5F10802FF231341B37461
:101860003574B36893FAA3F20749F36812BAC1F862
:10187000242593FAA3F31BBAC1F82835204670BD7E
:10188000B204002064000020001000400649074A0E
:10189000074B9B1A03DD043BC858D050FBDC00F01B
:1018A00013F8FEF7DBFD00002827000000000020F1
:1018B000F4010020FEE7FEE7FEE7FEE7FEE7FEE7B5
:1018C000FEE7FEE7FEE7FEE7F0B4A64B1B78062B2B
:1018D0001BD0A54AD2F8883043F47003C2F8883090
:1018E000BFF34F8FBFF36F8F4FF01023D3F8002259
:1018F000002AC0F20581D3F80432002BC0F2008127
:101900009A4B9B4A1A60F0BC70479A4B1B681E07A3
:10191000DFD1994B1B6803F0F003302B02D1974BBA
:10192000974A1A60944B1B6803F0F002302A00F0CB
:10193000D68003F0E003402B00F0D1808E4B1B6873
:1019400003F0F003302B00F0BB808B4B1B6803F0DF
:10195000F002302A00F0A08003F0E003402B00F0FA
:101960009B80854B1B6803F0F003302B00F08680D2
:10197000814B1B6803F0F003302B68D07E4B1B6853
:1019800003F0F003502B10D07B4B1B6803F0F002E8
:10199000302A03D003F0E003402B9AD1794B7A4AE6
:1019A0001B6803F04F03136093E74FF08052774BAF
:1019B000D2F80414C3F82015D2F80814C3F824157B
:1019C000D2F80C14C3F82815D2F81014C3F82C154B
:1019D000D2F81414C3F83015D2F81814C3F834151B
:1019E000D2F81C14C3F84015D2F82014C3F84415DB
:1019F000D2F82414C3F84815D2F82814C3F84C15AB
:101A0000D2F82C14C3F85015D2F83014C3F854157A
:101A1000D2F83414C3F86015D2F83814C3F864153A
:101A2000D2F83C14C3F86815D2F84014C3F86C150A
:101A3000D2F844244B49C3F870250A78062A7FF46B
:101A400048AF4C4B1B681B077FF443AF9CE7454BEB
:101A50004F491B784F4D5048504A05270F600126CB
:101A600000243F21062B2E60046011607FF431AF0B
:101A7000404B1B681A077FF42CAF7FE7394B484A6D
:101A80001B780321062B11607FF423AF394B1B68B1
:101A900019077FF41EAF6BE7324B1B784FF0804283
:101AA0000021062BC2F80C11C2F81011C2F838152B
:101AB0007FF40FAF2F4B1B6818077FF40AAF50E776
:101AC0003849284ACB68127823F08073062ACB6005
:101AD000B4D1284B1B681C077FF4FBAE35E7324AB4
:101AE000204B12681B783149C2F34232062B0A6040
:101AF0007FF4EFAE1F4B1B681D077FF4EAAE1DE7B6
:101B00002B4B0122C3F80425D3F80024002AFBD074
:101B10004FF0102315222649C3F80022D1F80034D3
:101B2000002BFBD04FF0102315222149C3F80422CB
:101B3000D1F800241E4B002AFAD00022C3F8042555
:101B4000D3F80024002AFBD0BFF34F8F0649194B6E
:101B5000CA6802F4E0621343CB60BFF34F8F00BF4B
:101B6000FDE700BFE00F00F000ED00E0780000208E
:101B70000090D003E40F00F0E80F00F074C00740BD
:101B80000DF0ADBA58020010E40E004000C0004055
:101B90001056004088560040185600401456004029
:101BA000A0050040F0ED00E0440200103C050040BC
:101BB00000E001400400FA05034B1B68186A034B60
:101BC000002808BF18467047600000207C000020F5
:101BD00008B5034B1868FFF7EFFFD0F8EC0008BD1D
:101BE0006000002082B001B901A93AB143B1137875
:101BF0000B601278101C18BF012003E0104601E0B2
:101C00006FF0010002B0704710B5431E0A449142C4
:101C100004D011F8014B03F8014FF8E710BD0000A4
:101C20000CB430B5164B0C1E9DB01D6804DA8B2326
:101C30002B604FF0FF301EE04FF40273ADF814300C
:101C400014BF04F1FF332346049307934FF6FF7349
:101C500002900690ADF81630209A21AB02A92846D2
:101C6000019300F085F8431CBCBF8B232B6014B19B
:101C7000029B00221A701DB0BDE8304002B07047D0
:101C800060000020034611F8012B03F8012B002A05
:101C9000F9D17047034613F8012B002AFBD1181A1B
:101CA0000138704749B1FF2A85BF8A2303600A7053
:101CB0004FF0FF3098BF01207047084670472DE96C
:101CC000F0478E689E4282460C46914698463ED822
:101CD0008A8912F4906F3AD0256809696F1A65698C
:101CE000022305EB450595FBF3F57B1C43449D4220
:101CF00038BF1D4653050FD5294600F083FB064625
:101D000098B13A462169FFF77FFFA38923F49063D6
:101D100043F08003A38113E02A4600F0D1FB06467E
:101D200070B92169504600F01FFB0C23CAF800303F
:101D3000A38943F04003A3814FF0FF30BDE8F08753
:101D4000266165613E44ED1B2660A560464646451A
:101D500028BF464632464946206800F0E9FAA368A3
:101D60009B1BA36023681E4426600020BDE8F0870B
:101D70002DE9F04F9DB0804603938B891C060D46DC
:101D800016460DD50B695BB9402100F03BFB28607E
:101D9000286118B90C23C8F80030CDE040236B61EE
:101DA0000023099320238DF82930DFF89CB13023DC
:101DB0008DF82A3037463C4614F8013B1BB9B7EB87
:101DC000060910D003E0252BF9D02746F3E74B4650
:101DD000324629464046FFF772FF013000F0A780E7
:101DE000099B4B4409933B78002B00F0A080002313
:101DF0004FF0FF3204930793059206938DF853300A
:101E00001A930126052221784E4800F041FA671CFA
:101E1000049B38B14B4A801A06FA00F0184304902C
:101E20003C46EFE7D90644BF20228DF853201A071D
:101E300044BF2B228DF8532022782A2A03D0079AF8
:101E400000210A200BE0039A111D12680391002A59
:101E500010DA524243F00200079204900BE027464A
:101E600001343B78303B092B03D800FB02320121BF
:101E7000F5E701B107923B782E2B1ED17B782A2BF8
:101E80000AD1039B1A1D1B680392002BB8BF4FF0A9
:101E9000FF330237059310E000230593781C1946A1
:101EA0000A24074601303A78303A092A03D804FB5D
:101EB00001210123F5E703B1059103223978224876
:101EC00000F0E6F940B14023CBEB000003FA00F04C
:101ED000049B18430490013739781C488DF828106A
:101EE00006227E1C00F0D4F988B1194B33B9039B4C
:101EF000073323F007030833039314E003AB009385
:101F00002A46144B04A94046AFF3008007E003AB18
:101F100000932A460F4B04A9404600F093F8B0F115
:101F2000FF3F824603D0099B5344099342E7AB89A4
:101F30005B0601D4099801E04FF0FF301DB0BDE809
:101F4000F08F00BFE7260000ED260000F12600001C
:101F500000000000BF1C00002DE9F04791461F461D
:101F60000A698B68DDF820809342B8BF1346C9F830
:101F7000003091F8432006460C4612B10133C9F8EF
:101F800000302368990642BFD9F800300233C9F8FF
:101F90000030256815F0060510D104F1190A07E094
:101FA0000123524639463046C04701301AD0013528
:101FB000E368D9F800209B1A9D42F1DB94F8433086
:101FC0002268003318BF012392060FD5E1185A1C6E
:101FD000302081F84300224494F8451082F84310E1
:101FE000023303E04FF0FF30BDE8F08704F1430215
:101FF00039463046C0470130F4D02268D9F8005045
:10200000E36802F00602042A08BF5D1B2269A36888
:102010000CBF25EAE57500259342C4BF9B1AED1855
:102020004FF000091A344D4509D0012322463946A4
:102030003046C0470130D5D009F10109F3E700204F
:10204000BDE8F0872DE9F04317460A7E85B06E2A79
:10205000984606460C460C9B01F1430E00F0AE80FC
:1020600011D8632A22D009D8002A00F0BB80582A50
:1020700040F0CA8081F84520834955E0642A1ED08B
:10208000692A1CD0C0E0732A00F0B08009D86F2AFA
:102090002ED0702A40F0B8800A6842F020020A6010
:1020A0003EE0752A24D0782A3AD0ADE01A6801F1D2
:1020B0004205111D1960136884F84230A8E02168B8
:1020C0001A6811F0800F02D0111D196008E011F09C
:1020D000400F02F10401196002D0B2F9003000E0B3
:1020E0001368002B3CDA2D225B4284F8432037E052
:1020F00021681A6811F0800F02D0111D196007E0E5
:1021000011F0400F02F10401196001D0138800E0C2
:102110001368227E5C496F2A14BF0A2208221BE042
:1021200078225A4984F845202268186812F0800FF6
:1021300000F104051D6003D1550601D5038800E0B8
:102140000368D00744BF42F0200222601BB9226816
:1021500022F0200222601022002084F8430001E0D7
:1021600049490A226568A560002D08DB206820F037
:10217000040020602BB9002D7DD175460CE0002BAA
:1021800079D07546B3FBF2F002FB1033CB5C05F857
:10219000013D03460028F5D1082A0BD12368DA0750
:1021A00008D5236962689A42DEBF302305F8013CF6
:1021B00005F1FF35C5EB0E0323612EE008681A68B0
:1021C000496910F0800F03D0101D1860136808E0F3
:1021D00010F0400F02F104001860136801D019805C
:1021E00000E0196000232361754616E01A68111D8E
:1021F0001960156862680021284600F049F808B1A6
:10220000401B6060636804E004F1420584F84220EA
:1022100001232361002384F84330CDF800803B463E
:1022200003AA21463046FFF797FE013002D14FF056
:10223000FF3026E023692A4639463046C047013040
:10224000F5D023689B0710D5002504F1190907E094
:1022500001234A4639463046C0470130E7D00135B0
:10226000E368039A9B1A9D42F2DBE068039B984265
:10227000B8BF184605E00B7884F8423004F14205F7
:102280008AE705B0BDE8F083F826000009270000C2
:1022900001F0FF01102A2BDB10F0070F08D010F817
:1022A000013B013A8B422DD010F0070F42B3F6D11B
:1022B000F0B441EA012141EA014122F007047FF034
:1022C00000070023F0E80256083C85EA010586EA8B
:1022D000010685FA47F5A3FA87F586FA47F6A5FAC7
:1022E00087F68EB9EED1F0BC01F0FF0102F00702D3
:1022F00032B110F8013B013A83EA010313B1F8D17E
:102300000020704701387047002D06BF354603385E
:10231000073815F0010F07D1013015F4807F02BF97
:10232000013015F4C03F0130F0BC0138704700BFE8
:10233000884210B501EB020301D8421E0BE098421F
:10234000FBD28118D21AD34204D013F8014D01F800
:10235000014DF8E710BD994204D011F8014B02F885
:10236000014FF8E710BD000038B50546002946D0FA
:1023700051F8043C0C1F002BB8BFE41800F0D6F84D
:102380001F4A1368114613B96360146032E0A34218
:102390000ED92268A018834204BF18685B68636086
:1023A00004BF121822600C6024E0A24203D8134636
:1023B0005A68002AF9D118681918A1420BD121686E
:1023C000014458188242196014D1106852685A604A
:1023D000014419600EE002D90C232B600AE0216849
:1023E0006018824204BF10685268626004BF091816
:1023F00021605C602846BDE8384000F098B838BDE0
:10240000C407002070B5CD1C25F0030508350C2D40
:1024100038BF0C25002D064601DBA94202D90C234A
:10242000336046E000F082F8234B1C681A462146D0
:10243000A1B10B685B1B0ED40B2B03D90B60CC181E
:10244000CD501EE08C420DBF63684B686360136023
:1024500018BF0C4615E00C464968E9E7174C23689D
:102460001BB9304600F052F820602946304600F093
:102470004DF8431C18D0C41C24F00304A0420DD115
:102480002560304600F053F804F10B00231D20F0C6
:102490000700C31A0ED05A42E25070BD211A3046CE
:1024A00000F034F80130EBD10C233360304600F0FB
:1024B0003EF8002070BD00BFC4070020C007002008
:1024C000F8B5074615460E4621B91146BDE8F84055
:1024D000FFF798BF1AB9FFF747FF2846F8BD00F08D
:1024E00027F885420ED929463846FFF78BFF044668
:1024F00050B131462A46FFF787FB31463846FFF791
:1025000033FF01E03046F8BD2046F8BD38B5064C33
:10251000002305460846236000F014F8431C02D14E
:10252000236803B12B6038BD440800207047704712
:1025300051F8040C0028BEBF091851F8043CC0181B
:1025400004387047044A05491368002B08BF0B463E
:102550001844106018467047C8070020480800203B
:10256000F8B500BFF8BC08BC9E467047F8B500BF80
:10257000F8BC08BC9E467047000000205B25303840
:10258000645D00004150505F4552524F523A4552EF
:10259000524F523A466174616C0D0A00E7E7E7E773
:1025A000C2C2C2C2E7C2C3C4C5C6C7C801000000D8
:1025B0000000000001020000FA00030000010220F8
:1025C000000000005465726D696E616C00000000CF
:1025D0005254540053454747455200004300504F62
:1025E000534958002E0000202020202020202020A9
:1025F00028282828282020202020202020202020B3
:1026000020202020202020881010101010101010E2
:102610001010101010101004040404040404040426
:1026200004101010101010104141414141410101AE
:10263000010101010101010101010101010101018A
:102640000101101010101010424242424242020298
:10265000020202020202020202020202020202025A
:102660000202101010102000000000000000000006
:10267000000000000000000000000000000000005A
:10268000000000000000000000000000000000004A
:10269000000000000000000000000000000000003A
:1026A000000000000000000000000000000000002A
:1026B000000000000000000000000000000000001A
:1026C000000000000000000000000000000000000A
:1026D00000000000000000000000000000000000FA
:1026E00000000000000000232D302B2000686C4CFF
:1026F000006566674546470030313233343536373A
:10270000383941424344454600303132333435365E
:1027100037383961626364656600000000000000BC
:082720003CDDFF7F0100000019
:1027280000000000000000000000000000000000A1
:102738000000000000000000000000000000000091
:102748000000000000000000000000000000000081
:102758000000000000000000000000000000000071
:102768000000000000000000000000000000000061
:102778000000000000000000000000000000000051
:1027880000000020E7E7E7E7C2C2C2C2E7C2C3C44D
:10279800C5C6C7C80805FF020090D0034300000063
:1027A8000000000000000000000000000000000021
:1027B80000000000000000000000000043000000CE
:1027C8000000000000000000000000000000000001
:1027D80000000000000000000000000043000000AE
:1027E80000000000000000000000000000000000E1
:1027F800000000000000000000000000430000008E
:1028080000000000000000000000000000000000C0
:10281800000000000000000000000000430000006D
:1028280000000000000000000000000000000000A0
:10283800000000000000000000000000430000004D
:102848000000000000000000000000000000000080
:10285800000000000000000000000000430000002D
:102868000000000000000000000000000000000060
:10287800000000000000000000000000A51C00008F
:10288800E51B000000000000E6250000E42500002C
:10289800EC260000EC260000EC260000EC260000E8
:1028A800EC260000EC260000EC260000EC260000D8
:1028B800EC260000FFFFFFFFFFFFFFFFFFFFFFFF0A
:1028C800FFFF000001004153434949000000000098
:1028D80000000000000000000000000000000000F0
:1028E8000000000000004153434949000000000077
:1028F80000000000000000000000000000000000D0
:102908000000000000000000250400000104000091
:0429180000000000BB
:040000030000188D54
:00000001FF
